:100000000C9428000C947B050C94A8050C94D50541
:100010000C943A000C943A000C943A000C946A0444
:100020000C9497040C94A3030C943D040C94E303E8
:100030000C941004000001000800400000010004BE
:1000400000000100080020004000800000010004C2
:1000500011241FBECFEFD4E0DEBFCDBF11E0A0E082
:10006000B1E001C01D92AC32B107E1F70E943C0043
:100070000C94CE060C9400000E94C1000E94430123
:10008000FDCF509107014FEF20E030E061E070E0DC
:10009000F901E050FF4F8081581750F0FB01022E0C
:1000A00002C0EE0FFF1F0A94E2F7CF0180954823AC
:1000B0002F5F3F4F2630310559F7809106014817D1
:1000C000B1F026B1842F90E08370907034E0880FF7
:1000D000991F3A95E1F72F7C282B28B989B1942FE5
:1000E00092959F708C7F982B9BB9409306015D5F22
:1000F000509307010895662341F09BB1882311F0C6
:1001000080E201C080E8892B07C09BB1882311F0F1
:100110008FED01C08FE789238BB981E0089586B107
:100120008F700895482F89B1442319F020E230E000
:1001300002C020E830E090E028233923232B09F087
:10014000609540FF05C0862F90E00E941903089536
:10015000862F90E00E941E0308950F931F93982FFF
:10016000062F182F11709270812F692F0E947B002B
:10017000882321F0812F602F0E9492001F910F9100
:1001800008950E94C4040E94860186E084B980E339
:1001900087B982EA8AB988E00E949F020E94F5022C
:1001A0008FEF90E00E9419030E94FE028FEF90E013
:1001B0000E941E0383E00E94E90481E00E94F00493
:1001C0000E9422060895843018F02FEF3FEF03C0FD
:1001D0000E9410059C01C90108951F93CF93DF93DE
:1001E0000E944106182F282F30E0C901807F9070AF
:1001F0008033910589F18133910534F48031910583
:1002000051F08097E1F51CC08034910561F1803593
:100210009105A9F52DC0E901CF70D070C630D10588
:100220001CF02DC00E9441000E9439068823D1F3A2
:100230000E944106C050DF4F888321C00E944100C8
:100240000E9439068823D1F30E944106682F812F2E
:1002500083700E94AD0013C0812F83700E94E30061
:100260000E9434060CC086B18F700E942E0607C013
:100270008FE40E942E060E9441068F7088B9DF919C
:10028000CF911F9108950E943906882311F00E9492
:10029000ED000E9441000895089585B5887F826031
:1002A00085BD16BCEEE6F0E080818160808310920F
:1002B0001F01109220011092210110922201089535
:1002C000E1E8F0E08081887F836080831092850080
:1002D00010928400EFE6F0E08081816080830895D1
:1002E000E1EBF0E08081887F846080831092B2002F
:1002F000E0E7F0E080818160808310922701109216
:1003000028011092290110922A01089580E090E0BE
:10031000FC01EE0FFF1FE85FFE4F11821082019675
:1003200087309105A9F70E944D010E9460010E944B
:1003300070017894089595B5987F982B95BD089590
:10034000E1E8F0E09081987F982B90830895E1EBAD
:10035000F0E09081987F982B9083089585B5E82FE1
:10036000F0E0E770F070EE0FFF1FEC5CFF4F25919F
:100370003491C901089580918100E82FF0E0E77081
:10038000F070EE0FFF1FEC5CFF4F25913491C90117
:1003900008958091B100E82FF0E0E770F070EE0F63
:1003A000FF1FE05CFF4F25913491C901089587300C
:1003B00040F4E82FF0E0EE0FFF1FE85FFE4F71837F
:1003C00060830895873040F4E82FF0E0EE0FFF1FC0
:1003D000E85FFE4F118210820895EF92FF920F9313
:1003E0001F93CF93DF93EC0116B510922301109267
:1003F0002401109225011092260185B5E82FF0E026
:10040000E770F070EE0FFF1FEC5CFF4F2591349109
:1004100040E050E060E070E880E790E00E94B306C2
:10042000B901CA01693B2DE8720726E0820720E086
:100430009207A0F437E2C131D30780F49E0140E077
:1004400050E00E94720628EE33E040E050E00E9447
:100450009106C901DA01BC01CD0121C028EE33E0CB
:1004600040E050E00E949106CA01B9019E0140E0BF
:1004700050E00E94720613C08091230190912401E4
:10048000A0912501B091260183B7817F83BF83B7F7
:10049000816083BF889583B78E7F83BF08C09B012F
:1004A000AC01210F311D411D511D79018A0120919F
:1004B000230130912401409125015091260186B5F8
:1004C00090E0A0E0B0E0542F432F322F2227822B60
:1004D000932BA42BB52B8E159F05A007B10760F2B7
:1004E000DF91CF911F910F91FF90EF90089510929F
:1004F0001F011092200110922101109222010895F3
:1005000020911F0130912001409121015091220141
:10051000B901CA0108951092270110922801109282
:10052000290110922A010895209127013091280174
:100530004091290150912A01B901CA0108958930D9
:1005400049F48091800082608093800080918000D7
:100550008E7F0EC08A3021F480918000826003C0BB
:10056000809180008D7F80938000809180008160E9
:1005700080938000109289001092880010928B0066
:1005800010928A000895E0E8F0E020812E7F208319
:10059000208122602083E1E8F0E020812860208330
:1005A00020812061208390938700809386001092A1
:1005B00089001092880010928B0010928A00089592
:1005C000E0E8F0E080818D7F808380818E7F808372
:1005D00080818F77808380818F7B808380818F7DF6
:1005E000808380818F7E80830895E0E8F0E08081C1
:1005F0008068808380818F7B80830895E0E8F0E0CD
:1006000080818062808380818F7E80830895E0E88E
:10061000F0E080818F77808380818F7B8083089555
:10062000E0E8F0E080818F7D808380818F7E808311
:1006300008959093890080938800089590938B008B
:1006400080938A0008951F920F920FB60F92112483
:100650002F933F934F935F936F937F938F939F93CA
:10066000AF93BF93EF93FF9380911F01909120016F
:10067000A0912101B09122010196A11DB11D80938D
:100680001F0190932001A0932101B093220180913A
:10069000230190912401A0912501B091260101969A
:1006A000A11DB11D8093230190932401A0932501E6
:1006B000B09326018091080190910901892B29F0BE
:1006C000E0910801F09109010995FF91EF91BF9127
:1006D000AF919F918F917F916F915F914F913F91DA
:1006E0002F910F900FBE0F901F9018951F920F9291
:1006F0000FB60F9211242F933F934F935F936F93F5
:100700007F938F939F93AF93BF93EF93FF938091CA
:100710000A0190910B01892B29F0E0910A01F091D7
:100720000B010995FF91EF91BF91AF919F918F912F
:100730007F916F915F914F913F912F910F900FBEDD
:100740000F901F9018951F920F920FB60F921124C1
:100750002F933F934F935F936F937F938F939F93C9
:10076000AF93BF93EF93FF9380912701909128015E
:10077000A0912901B0912A010196A11DB11D80937C
:10078000270190932801A0932901B0932A01809119
:10079000120190911301892B29F0E0911201F0913F
:1007A00013010995FF91EF91BF91AF919F918F91A7
:1007B0007F916F915F914F913F912F910F900FBE5D
:1007C0000F901F9018951F920F920FB60F92112441
:1007D0002F933F934F935F936F937F938F939F9349
:1007E000AF93BF93EF93FF9380910C0190910D0114
:1007F000892B29F0E0910C01F0910D010995FF91F1
:10080000EF91BF91AF919F918F917F916F915F9188
:100810004F913F912F910F900FBE0F901F90189501
:100820001F920F920FB60F9211242F933F934F9365
:100830005F936F937F938F939F93AF93BF93EF9348
:10084000FF9380910E0190910F01892B29F0E09187
:100850000E01F0910F010995FF91EF91BF91AF91BA
:100860009F918F917F916F915F914F913F912F91C8
:100870000F900FBE0F901F9018951F920F920FB6FA
:100880000F9211242F933F934F935F936F937F9316
:100890008F939F93AF93BF93EF93FF93809110013A
:1008A00090911101892B29F0E0911001F091110133
:1008B0000995FF91EF91BF91AF919F918F917F919A
:1008C0006F915F914F913F912F910F900FBE0F90BD
:1008D0001F9018951F920F920FB60F9211242F930D
:1008E0003F934F935F936F937F938F939F93AF93B8
:1008F000BF93EF93FF938091140190911501892B81
:1009000029F0E0911401F09115010995FF91EF9103
:10091000BF91AF919F918F917F916F915F914F9117
:100920003F912F910F900FBE0F901F9018951F921F
:100930000F920FB60F9211242F933F934F935F9313
:100940006F937F938F939F93AF93BF93EF93FF9397
:100950008091140190911501892B29F0E0911401E7
:10096000F09115010995FF91EF91BF91AF919F9182
:100970008F917F916F915F914F913F912F910F9048
:100980000FBE0F901F901895AAE7B0E08C91806879
:100990008C938C918F7D8C938C91887F86608C93C7
:1009A000ECE7F0E080818F738064808380818F7DAD
:1009B00080838C9188608C9310922B017894089599
:1009C000EAE7F0E08081877F808380818F77808372
:1009D0000895EAE7F0E09081987F982B908308953E
:1009E000ECE7F0E090818295880F880F807C9F7300
:1009F000982B90830895ECE7F0E090818F71907EC2
:100A0000892B80830895EAE7F0E08081806180830C
:100A1000808180648083089580917A008074089535
:100A200010922B0190917C008F71907E892B809386
:100A30007C0080917A00806180937A0080917A00B6
:100A4000806480937A0080917A0086FDFCCF2091AB
:100A5000780040917900942F80E030E0282B392BEA
:100A6000C90108950E9410059695879596958795DA
:100A700008951F920F920FB60F9211248F938FEF4C
:100A800080932B018F910F900FBE0F901F901895A0
:100A9000109217011092160110921901109218016C
:100AA0000895882339F485B78C7F85BF85B7862B59
:100AB00085BF0895813041F485B7837F85BF85B7B1
:100AC000660F660F862B85BF0895823040F4E82FAD
:100AD000F0E0EE0FFF1FEA5EFE4F71836083089522
:100AE000823040F4E82FF0E0EE0FFF1FEA5EFE4F89
:100AF0001182108208951F920F920FB60F92112447
:100B00002F933F934F935F936F937F938F939F9315
:100B1000AF93BF93EF93FF938091160190911701CC
:100B2000892B29F0E0911601F09117010995FF91A9
:100B3000EF91BF91AF919F918F917F916F915F9155
:100B40004F913F912F910F900FBE0F901F901895CE
:100B50001F920F920FB60F9211242F933F934F9332
:100B60005F936F937F938F939F93AF93BF93EF9315
:100B7000FF938091180190911901892B29F0E09140
:100B80001801F09119010995FF91EF91BF91AF9173
:100B90009F918F917F916F915F914F913F912F9195
:100BA0000F900FBE0F901F9018951F920F920FB6C7
:100BB0000F9211242F933F938F939F931D9B36C0C9
:100BC00080911A0190911B0180FF02C02C9A01C0F4
:100BD0002C9880911A0190911B019695879590937E
:100BE0001B0180931A0180911C0190911D01880FB7
:100BF000991F90931D0180931C0120911C0130913D
:100C00001D0183B190E09695879596958795969569
:100C1000879581709070822B932B90931D01809308
:100C20001C0180911E018F5F80931E019F918F9107
:100C30003F912F910F900FBE0F901F90189510921B
:100C40001E010895E8E6F0E0808181608083EBE694
:100C5000F0E0808180628083249A089590E09093F0
:100C60001B0180931A01089590931B0180931A0130
:100C7000089580911E0190E0883008F091E0892F5E
:100C8000089580911E018830E0F380911C019091BD
:100C90001D0120911C0130911D01232F332730931A
:100CA0001D0120931C0120911E01285020931E013C
:100CB000089580911E018031E0F320911C01309154
:100CC0001D0180911C0190911D0199278827909307
:100CD0001D0180931C0180911E01805180931E0193
:100CE000C9010895629FD001739FF001829FE00DBA
:100CF000F11D649FE00DF11D929FF00D839FF00D9B
:100D0000749FF00D659FF00D9927729FB00DE11D46
:100D1000F91F639FB00DE11DF91FBD01CF01112423
:100D20000895A1E21A2EAA1BBB1BFD010DC0AA1F2C
:100D3000BB1FEE1FFF1FA217B307E407F50720F044
:100D4000A21BB30BE40BF50B661F771F881F991FBF
:100D50001A9469F760957095809590959B01AC0108
:100D6000BD01CF01089597FB092E05260ED057FD32
:100D700004D0D7DF0AD0001C38F450954095309548
:100D800021953F4F4F4F5F4F0895F6F7909580950F
:100D9000709561957F4F8F4F9F4F0895F894FFCFC7
:00000001FF
