:100000000C9442000C94B1060C94DE060C940B0781
:100010000C9454000C9454000C9454000C949B05C4
:100020000C94C8050C94D4040C946E050C9414051F
:100030000C9441050C94A7040C9454000C945400A7
:100040000C9454040C9454000C9454000C945400DC
:100050000C9454000C946F060C9454000C945400AF
:100060000C9454000C94540000000100080040005F
:100070000001000400000100080020004000800092
:100080000001000411241FBECFEFD4E0DEBFCDBFBE
:1000900011E0A0E0B1E001C01D92AD33B107E1F77E
:1000A0000E9456000C9422080C9400000E94A100AB
:1000B0000E947402FDCF662341F09BB1882311F0AA
:1000C00080E201C080E8892B07C09BB1882311F032
:1000D0008FED01C08FE789238BB981E0089586B148
:1000E0008F700895482F89B1442319F020E230E041
:1000F00002C020E830E090E028233923232B09F0C8
:10010000609540FF05C0862F90E00E944A04089544
:10011000862F90E00E944F0408950F931F93982F0D
:10012000062F182F11709270812F692F0E945B008B
:10013000882321F0812F602F0E9472001F910F9160
:1001400008950E94F50587E00E941F0681E00E9445
:1001500026060E94910286E084B980E387B983EA8B
:100160008AB988E00E94D0030E94260480E090E0D3
:100170000E944A040E942F0480E090E00E944F04F5
:100180000E94630710922E0110922D0181E080934E
:100190002F01789480E060E00E948D0081E060E0B3
:1001A0000E948D0008951F93CF93DF931091140147
:1001B00070E020E030E041E050E0F901E050FF4F16
:1001C0008081181740F4CA01022E02C0880F991FBF
:1001D0000A94E2F7782B2F5F3F4F2630310569F7FD
:1001E000112309F051C080911201885F80931201A0
:1001F000882309F049C040E050E0FA01E45FFE4F77
:10020000808180FF19C0808190E095958795982F17
:10021000882359F0DA01A050BF4F8C91981728F02D
:1002200080818E7F80831C9229C0FA01E050FF4FAD
:100230008081891B808322C0808190E0959587957D
:10024000682F8823A9F0EA01C050DF4F2881DA0126
:10025000AA5FBE4F8C9130E090E0861B9109281771
:10026000390734F08081816080838C91888306C057
:10027000FA01E050FF4F8081680F60834F5F5F4F4E
:100280004630510509F0B9CF809113017817B1F0CC
:1002900026B1872F90E08370907034E0880F991F0B
:1002A0003A95E1F72F7C282B28B989B1972F9295A1
:1002B0009F708C7F982B9BB970931301195F1093DB
:1002C000140180912F018823D1F180912D0190910B
:1002D0002E01892BA1F10E944206882381F53091DD
:1002E000780020917900922F80E0232F30E0282B96
:1002F000392B80912D0190912E018217930750F494
:1003000080912D0190912E0107968217930770F42A
:1003100080E00AC080912D0190912E01295F3F4F0E
:100320002817390718F482E068EC02C080E060E02A
:100330000E948D0081E00E9431060E943906DF9103
:10034000CF911F910895843018F02FEF3FEF1AC01E
:1003500010922F010E9431060E94390602C00E94AD
:10036000D3000E9442068823D1F730917800209173
:100370007900922F80E0232F30E0282B392B81E069
:1003800080932F01C90108951F93CF93DF930E949B
:100390009B07182FE82FF0E0CF01807F907080340A
:1003A000910509F458C0813491055CF480329105BF
:1003B00099F18033910509F441C0409709F090C04C
:1003C0000DC08036910509F45DC08037910509F4B0
:1003D0006EC08035910509F083C048C0EF01CF7031
:1003E000D070C630D1051CF07BC00E94D3000E94A3
:1003F00093078823D1F30E949B07FE01E050FF4F33
:1004000080838081FE01EA5FFE4F8083C45FDE4F00
:10041000188266C00E94D3000E9493078823D1F3FC
:100420000E949B07682F812F83700E948D0010927D
:100430002E0110922D0154C00E94D3000E948B0700
:100440008823D1F3812F83700E94A3010E947E072D
:1004500047C00E94D3000E948B078823D1F386B146
:100460008F700E946F073CC00E94D3000E948B07D0
:100470008823D1F38FE40E946F070E949B078F703F
:1004800088B92EC0EF01CF70D070C630D1051CF0F6
:1004900027C00E94D3000E9493078823D1F30E94B3
:1004A0009B07C45FDE4F88831BC00E94D3000E945D
:1004B00093078823D1F30E949B07182F02C00E9444
:1004C000D3000E9493078823D1F30E949B07312F0A
:1004D00020E090E0822B932B90932E0180932D01AE
:1004E000DF91CF911F9108950E949307882311F007
:1004F0000E94C4010E94D3000895089585B5887FA5
:10050000826085BD16BCEEE6F0E08081816080836C
:100510001092300110923101109232011092330189
:100520000895E1E8F0E08081887F83608083109205
:10053000850010928400EFE6F0E080818160808386
:100540000895E1EBF0E08081887F846080831092E1
:10055000B200E0E7F0E08081816080831092380192
:100560001092390110923A0110923B01089580E0F7
:1005700090E0FC01EE0FFF1FEB5EFE4F1182108238
:10058000019687309105A9F70E947E020E94910290
:100590000E94A1027894089595B5987F982B95BDF7
:1005A0000895E1E8F0E09081987F982B908308957A
:1005B000E1EBF0E09081987F982B9083089585B5CA
:1005C000E82FF0E0E770F070EE0FFF1FE859FF4FE3
:1005D00025913491C901089580918100E82FF0E0C0
:1005E000E770F070EE0FFF1FE859FF4F259134912F
:1005F000C90108958091B100E82FF0E0E770F07034
:10060000EE0FFF1FEC58FF4F25913491C90108955B
:10061000873040F4E82FF0E0EE0FFF1FEB5EFE4F57
:10062000718360830895873040F4E82FF0E0EE0F87
:10063000FF1FEB5EFE4F118210820895EF92FF9232
:100640000F931F93CF93DF93EC0116B510923401F3
:1006500010923501109236011092370185B5E82FBE
:10066000F0E0E770F070EE0FFF1FE859FF4F2591A3
:10067000349140E050E060E073EC88E191E00E944A
:100680000708B901CA01693B2DE8720726E0820715
:1006900020E09207A0F437E2C131D30780F49E0135
:1006A00040E050E00E94C60728EE33E040E050E012
:1006B0000E94E507C901DA01BC01CD0121C028EE85
:1006C00033E040E050E00E94E507CA01B9019E0115
:1006D00040E050E00E94C60713C080913401909121
:1006E0003501A0913601B091370183B7817F83BF77
:1006F00083B7816083BF889583B78E7F83BF08C02F
:100700009B01AC01210F311D411D511D79018A0151
:1007100020913401309135014091360150913701DB
:1007200086B590E0A0E0B0E0542F432F322F22276F
:10073000822B932BA42BB52B8E159F05A007B107F9
:1007400060F2DF91CF911F910F91FF90EF9008958C
:100750001092300110923101109232011092330147
:100760000895209130013091310140913201509132
:100770003301B901CA01089510923801109239016C
:1007800010923A0110923B01089520913801309166
:10079000390140913A0150913B01B901CA010895D4
:1007A000893049F48091800082608093800080913C
:1007B00080008E7F0EC08A3021F48091800082609C
:1007C00003C0809180008D7F8093800080918000A5
:1007D00081608093800010928900109288001092AE
:1007E0008B0010928A000895E0E8F0E020812E7FCF
:1007F0002083208122602083E1E8F0E020812860CE
:10080000208320812061208390938700809386003D
:10081000109289001092880010928B0010928A002A
:100820000895E0E8F0E080818D7F808380818E7F75
:10083000808380818F77808380818F7B808380819C
:100840008F7D808380818F7E80830895E0E8F0E053
:1008500080818068808380818F7B80830895E0E839
:10086000F0E080818062808380818F7E8083089524
:10087000E0E8F0E080818F77808380818F7B8083C8
:100880000895E0E8F0E080818F7D808380818F7E15
:1008900080830895909389008093880008959093B1
:1008A0008B0080938A0008951F920F920FB60F92CB
:1008B00011242F933F934F935F936F937F938F9365
:1008C0009F93AF93BF93EF93FF93809130019091EB
:1008D0003101A0913201B09133010196A11DB11DEA
:1008E0008093300190933101A0933201B093330192
:1008F0008091340190913501A0913601B09137017A
:100900000196A11DB11D8093340190933501A093F0
:100910003601B09337018091150190911601892B12
:1009200029F0E0911501F09116010995FF91EF91E1
:10093000BF91AF919F918F917F916F915F914F91F7
:100940003F912F910F900FBE0F901F9018951F92FF
:100950000F920FB60F9211242F933F934F935F93F3
:100960006F937F938F939F93AF93BF93EF93FF9377
:100970008091170190911801892B29F0E0911701BE
:10098000F09118010995FF91EF91BF91AF919F915F
:100990008F917F916F915F914F913F912F910F9028
:1009A0000FBE0F901F9018951F920F920FB60F92C7
:1009B00011242F933F934F935F936F937F938F9364
:1009C0009F93AF93BF93EF93FF93809138019091E2
:1009D0003901A0913A01B0913B010196A11DB11DD1
:1009E0008093380190933901A0933A01B0933B0171
:1009F00080911F0190912001892B29F0E0911F0126
:100A0000F09120010995FF91EF91BF91AF919F91D6
:100A10008F917F916F915F914F913F912F910F90A7
:100A20000FBE0F901F9018951F920F920FB60F9246
:100A300011242F933F934F935F936F937F938F93E3
:100A40009F93AF93BF93EF93FF9380911901909180
:100A50001A01892B29F0E0911901F0911A010995E9
:100A6000FF91EF91BF91AF919F918F917F916F9186
:100A70005F914F913F912F910F900FBE0F901F905C
:100A800018951F920F920FB60F9211242F933F9338
:100A90004F935F936F937F938F939F93AF93BF9386
:100AA000EF93FF9380911B0190911C01892B29F0FA
:100AB000E0911B01F0911C010995FF91EF91BF910D
:100AC000AF919F918F917F916F915F914F913F91E6
:100AD0002F910F900FBE0F901F9018951F920F929D
:100AE0000FB60F9211242F933F934F935F936F9301
:100AF0007F938F939F93AF93BF93EF93FF938091D7
:100B00001D0190911E01892B29F0E0911D01F091AA
:100B10001E010995FF91EF91BF91AF919F918F9128
:100B20007F916F915F914F913F912F910F900FBEE9
:100B30000F901F9018951F920F920FB60F921124CD
:100B40002F933F934F935F936F937F938F939F93D5
:100B5000AF93BF93EF93FF93809121019091220176
:100B6000892B29F0E0912101F09122010995FF9153
:100B7000EF91BF91AF919F918F917F916F915F9115
:100B80004F913F912F910F900FBE0F901F9018958E
:100B90001F920F920FB60F9211242F933F934F93F2
:100BA0005F936F937F938F939F93AF93BF93EF93D5
:100BB000FF938091210190912201892B29F0E091EE
:100BC0002101F09122010995FF91EF91BF91AF9121
:100BD0009F918F917F916F915F914F913F912F9155
:100BE0000F900FBE0F901F901895AAE7B0E08C9160
:100BF00080688C938C918F7D8C93EBE7F0E0808103
:100C0000877080838C91887F86608C93ECE7F0E01E
:100C100080818F738064808380818F7D80838C91BD
:100C2000877F8C9310923C0178940895EAE7F0E076
:100C30008081877F808380818F7780830895EAE732
:100C4000F0E09081987F982B90830895ECE7F0E096
:100C500090818295880F880F807C9F73982B90835A
:100C60000895ECE7F0E090818F71907E892B80836E
:100C70000895EAE7F0E0808180618083808180646C
:100C80008083089580917A008074089510923C01C9
:100C900090917C008F71907E892B80937C00809155
:100CA0007A00806180937A0080917A0080648093DA
:100CB0007A0080917A0086FDFCCF209178004091E7
:100CC0007900942F80E030E0282B392BC90108955A
:100CD0000E944606969587959695879508951F924A
:100CE0000F920FB60F9211248F938FEF80933C01D8
:100CF0008F910F900FBE0F901F90189510922401A6
:100D00001092230110922601109225010895882344
:100D100039F485B78C7F85BF85B7862B85BF08954D
:100D2000813041F485B7837F85BF85B7660F660F35
:100D3000862B85BF0895823040F4E82FF0E0EE0F57
:100D4000FF1FED5DFE4F718360830895823040F494
:100D5000E82FF0E0EE0FFF1FED5DFE4F11821082D5
:100D600008951F920F920FB60F9211242F933F9365
:100D70004F935F936F937F938F939F93AF93BF93A3
:100D8000EF93FF938091230190912401892B29F007
:100D9000E0912301F09124010995FF91EF91BF911A
:100DA000AF919F918F917F916F915F914F913F9103
:100DB0002F910F900FBE0F901F9018951F920F92BA
:100DC0000FB60F9211242F933F934F935F936F931E
:100DD0007F938F939F93AF93BF93EF93FF938091F4
:100DE000250190912601892B29F0E0912501F091B0
:100DF00026010995FF91EF91BF91AF919F918F913E
:100E00007F916F915F914F913F912F910F900FBE06
:100E10000F901F9018951F920F920FB60F921124EA
:100E20002F933F938F939F931D9B3FC080912701EA
:100E30009091280180FF02C02C9A01C02C988091CB
:100E4000270190912801969587959093280180938A
:100E5000270180912901882329F08091290181505F
:100E60008093290180912A0190912B01880F991F6D
:100E700090932B0180932A0120912A0130912B011C
:100E800083B190E0969587959695879596958795E9
:100E900081709070822B932B90932B0180932A0169
:100EA00080912C018F5F80932C019F918F913F91B6
:100EB0002F910F900FBE0F901F90189510922C013C
:100EC000109229010895E8E6F0E080818160808336
:100ED000EBE6F0E0808180628083249A0895982F69
:100EE000809129018823E1F788E080932901892FE7
:100EF00090E0909328018093270108959C018091B0
:100F000029018823E1F780E18093290130932801AA
:100F10002093270108958091290190E0882309F406
:100F200091E0892F089580912C0190E0883008F09D
:100F300091E0892F089580912C018830E0F3809111
:100F40002A0190912B0120912A0130912B01232F0E
:100F5000332730932B0120932A0120912C01285014
:100F600020932C01089580912C018031E0F3209191
:100F70002A0130912B0110922B0110922A018091AD
:100F80002C01805180932C01C9010895629FD001EA
:100F9000739FF001829FE00DF11D649FE00DF11D34
:100FA000929FF00D839FF00D749FF00D659FF00DE3
:100FB0009927729FB00DE11DF91F639FB00DE11DD0
:100FC000F91FBD01CF0111240895A1E21A2EAA1B19
:100FD000BB1BFD010DC0AA1FBB1FEE1FFF1FA217E9
:100FE000B307E407F50720F0A21BB30BE40BF50BE6
:100FF000661F771F881F991F1A9469F7609570956F
:10100000809590959B01AC01BD01CF01089597FBA0
:10101000092E05260ED057FD04D0D7DF0AD0001CBC
:1010200038F450954095309521953F4F4F4F5F4F85
:101030000895F6F790958095709561957F4F8F4F45
:081040009F4F0895F894FFCFC3
:00000001FF
