:100000000C9442000C94C4060C94F1060C941E0748
:100010000C9454000C9454000C9454000C94AE05B1
:100020000C94DB050C94E7040C9481050C942705D3
:100030000C9454050C94BA040C9454000C94540081
:100040000C9467040C9454000C9454000C945400C9
:100050000C9454000C9482060C9454000C9454009C
:100060000C9454000C94540000000100080040005F
:100070000001000400000100080020004000800092
:100080000001000411241FBECFEFD4E0DEBFCDBFBE
:1000900011E0A0E0B1E001C01D92AE33B107E1F77D
:1000A0000E9456000C9435080C9400000E94A10098
:1000B0000E948702FDCF662341F09BB1882311F097
:1000C00080E201C080E8892B07C09BB1882311F032
:1000D0008FED01C08FE789238BB981E0089586B148
:1000E0008F700895482F89B1442319F020E230E041
:1000F00002C020E830E090E028233923232B09F0C8
:10010000609540FF05C0862F90E00E945D04089531
:10011000862F90E00E94620408950F931F93982FFA
:10012000062F182F11709270812F692F0E945B008B
:10013000882321F0812F602F0E9472001F910F9160
:1001400008950E94080687E00E94320681E00E941E
:1001500039060E94A40286E084B980E387B983EA65
:100160008AB988E00E94E3030E94390480E090E0AD
:100170000E945D040E94420480E090E00E946204BC
:100180000E94760710922F0110922E0181E0809339
:100190003001789480E060E00E948D0081E060E0B2
:1001A0000E948D0008951F93CF93DF931091150146
:1001B00070E020E030E041E050E0F901E050FF4F16
:1001C0008081181740F4CA01022E02C0880F991FBF
:1001D0000A94E2F7782B2F5F3F4F2630310569F7FD
:1001E000112309F051C080911301805F80931301A6
:1001F000882309F049C040E050E0FA01E45FFE4F77
:10020000808180FF19C0808190E095958795982F17
:10021000882359F0DA01A050BF4F8C91981728F02D
:1002200080818E7F80831C9229C0FA01E050FF4FAD
:100230008081891B808322C0808190E0959587957D
:10024000682F8823A9F0EA01C050DF4F2881DA0126
:10025000AA5FBE4F8C9130E090E0861B9109281771
:10026000390734F08081816080838C91888306C057
:10027000FA01E050FF4F8081680F60834F5F5F4F4E
:100280004630510509F0B9CF809114017817B1F0CB
:1002900026B1872F90E08370907034E0880F991F0B
:1002A0003A95E1F72F7C282B28B989B1972F9295A1
:1002B0009F708C7F982B9BB970931401195F1093DA
:1002C0001501809130018823D1F180912E01909108
:1002D0002F01892BA1F10E945506882381F53091C9
:1002E000780020917900922F80E0232F30E0282B96
:1002F000392B80912E0190912F018217930750F492
:1003000080912E0190912F0107968217930770F428
:1003100080E00AC080912E0190912F01295F3F4F0C
:100320002817390718F482E068EC02C080E060E02A
:100330000E948D0080E00E9444060E944C0686B117
:1003400090E083709070892B41F4309906C08091C1
:100350001201882311F0419A01C0419886B1817041
:1003600080931201DF91CF911F910895843018F08E
:100370002FEF3FEF1AC0109230010E9444060E94F6
:100380004C0602C00E94D3000E9455068823D1F774
:100390003091780020917900922F80E0232F30E077
:1003A000282B392B81E080933001C90108951F93D8
:1003B000CF93DF930E94AE07182FE82FF0E0CF0114
:1003C000807F90708034910509F458C08134910584
:1003D0005CF48032910599F18033910509F441C0B4
:1003E000409709F090C00DC08036910509F45DC0BA
:1003F0008037910509F46EC08035910509F083C0FE
:1004000048C0EF01CF70D070C630D1051CF07BC062
:100410000E94D3000E94A6078823D1F30E94AE0752
:10042000FE01E050FF4F80838081FE01EA5FFE4FB6
:100430008083C45FDE4F188266C00E94D3000E9492
:10044000A6078823D1F30E94AE07682F812F8370FF
:100450000E948D0010922F0110922E0154C00E9414
:10046000D3000E949E078823D1F3812F83700E94BE
:10047000B6010E94910747C00E94D3000E949E07C8
:100480008823D1F386B18F700E9482073CC00E94FE
:10049000D3000E949E078823D1F38FE40E94820735
:1004A0000E94AE078F7088B92EC0EF01CF70D07058
:1004B000C630D1051CF027C00E94D3000E94A607B9
:1004C0008823D1F30E94AE07C45FDE4F88831BC030
:1004D0000E94D3000E94A6078823D1F30E94AE0792
:1004E000182F02C00E94D3000E94A6078823D1F3D0
:1004F0000E94AE07312F20E090E0822B932B909347
:100500002F0180932E01DF91CF911F9108950E94BA
:10051000A607882311F00E94D7010E94D3000895F6
:10052000089585B5887F826085BD16BCEEE6F0E053
:10053000808181608083109231011092320110928B
:100540003301109234010895E1E8F0E08081887F62
:10055000836080831092850010928400EFE6F0E0C3
:100560008081816080830895E1EBF0E08081887F65
:10057000846080831092B200E0E7F0E080818160C7
:1005800080831092390110923A0110923B0110922F
:100590003C01089580E090E0FC01EE0FFF1FEA5E51
:1005A000FE4F11821082019687309105A9F70E94B3
:1005B00091020E94A4020E94B4027894089595B515
:1005C000987F982B95BD0895E1E8F0E09081987FA1
:1005D000982B90830895E1EBF0E09081987F982B21
:1005E0009083089585B5E82FF0E0E770F070EE0F86
:1005F000FF1FE859FF4F25913491C901089580915B
:100600008100E82FF0E0E770F070EE0FFF1FE8596F
:10061000FF4F25913491C90108958091B100E82FD1
:10062000F0E0E770F070EE0FFF1FEC58FF4F2591E0
:100630003491C9010895873040F4E82FF0E0EE0FBF
:10064000FF1FEA5EFE4F718360830895873040F498
:10065000E82FF0E0EE0FFF1FEA5EFE4F11821082DE
:100660000895EF92FF920F931F93CF93DF93EC01C6
:1006700016B5109235011092360110923701109282
:10068000380185B5E82FF0E0E770F070EE0FFF1F3E
:10069000E859FF4F2591349140E050E060EC74E35D
:1006A00084E290E00E941A08B901CA01693B2DE872
:1006B000720726E0820720E09207A0F437E2C131FA
:1006C000D30780F49E0140E050E00E94D90728EE55
:1006D00033E040E050E00E94F807C901DA01BC01B4
:1006E000CD0121C028EE33E040E050E00E94F80741
:1006F000CA01B9019E0140E050E00E94D90713C031
:100700008091350190913601A0913701B091380167
:1007100083B7817F83BF83B7816083BF889583B7A9
:100720008E7F83BF08C09B01AC01210F311D411D8D
:10073000511D79018A012091350130913601409196
:1007400037015091380186B590E0A0E0B0E0542F19
:10075000432F322F2227822B932BA42BB52B8E15C0
:100760009F05A007B10760F2DF91CF911F910F9114
:10077000FF90EF9008951092310110923201109283
:1007800033011092340108952091310130913201EA
:100790004091330150913401B901CA01089510927A
:1007A000390110923A0110923B0110923C010895D8
:1007B0002091390130913A0140913B0150913C0127
:1007C000B901CA010895893049F48091800082609E
:1007D00080938000809180008E7F0EC08A3021F44B
:1007E00080918000826003C0809180008D7F809323
:1007F0008000809180008160809380001092890049
:100800001092880010928B0010928A000895E0E800
:10081000F0E020812E7F2083208122602083E1E888
:10082000F0E0208128602083208120612083909344
:1008300087008093860010928900109288001092A1
:100840008B0010928A000895E0E8F0E080818D7FAF
:10085000808380818E7F808380818F778083808179
:100860008F7B808380818F7D808380818F7E80835A
:100870000895E0E8F0E080818068808380818F7B4C
:1008800080830895E0E8F0E0808180628083808149
:100890008F7E80830895E0E8F0E080818F77808309
:1008A00080818F7B80830895E0E8F0E080818F7DF8
:1008B000808380818F7E80830895909389008093C8
:1008C0008800089590938B0080938A0008951F926A
:1008D0000F920FB60F9211242F933F934F935F9374
:1008E0006F937F938F939F93AF93BF93EF93FF93F8
:1008F0008091310190913201A0913301B091340186
:100900000196A11DB11D8093310190933201A093F6
:100910003301B09334018091350190913601A0915B
:100920003701B09138010196A11DB11D80933501A9
:1009300090933601A0933701B0933801809116014E
:1009400090911701892B29F0E0911601F091170180
:100950000995FF91EF91BF91AF919F918F917F91F9
:100960006F915F914F913F912F910F900FBE0F901C
:100970001F9018951F920F920FB60F9211242F936C
:100980003F934F935F936F937F938F939F93AF9317
:10099000BF93EF93FF938091180190911901892BD8
:1009A00029F0E0911801F09119010995FF91EF915B
:1009B000BF91AF919F918F917F916F915F914F9177
:1009C0003F912F910F900FBE0F901F9018951F927F
:1009D0000F920FB60F9211242F933F934F935F9373
:1009E0006F937F938F939F93AF93BF93EF93FF93F7
:1009F0008091390190913A01A0913B01B0913C0165
:100A00000196A11DB11D8093390190933A01A093E5
:100A10003B01B0933C018091200190912101892BF1
:100A200029F0E0912001F09121010995FF91EF91CA
:100A3000BF91AF919F918F917F916F915F914F91F6
:100A40003F912F910F900FBE0F901F9018951F92FE
:100A50000F920FB60F9211242F933F934F935F93F2
:100A60006F937F938F939F93AF93BF93EF93FF9376
:100A700080911A0190911B01892B29F0E0911A01B4
:100A8000F0911B010995FF91EF91BF91AF919F915B
:100A90008F917F916F915F914F913F912F910F9027
:100AA0000FBE0F901F9018951F920F920FB60F92C6
:100AB00011242F933F934F935F936F937F938F9363
:100AC0009F93AF93BF93EF93FF9380911C019091FD
:100AD0001D01892B29F0E0911C01F0911D01099560
:100AE000FF91EF91BF91AF919F918F917F916F9106
:100AF0005F914F913F912F910F900FBE0F901F90DC
:100B000018951F920F920FB60F9211242F933F93B7
:100B10004F935F936F937F938F939F93AF93BF9305
:100B2000EF93FF9380911E0190911F01892B29F073
:100B3000E0911E01F0911F010995FF91EF91BF9186
:100B4000AF919F918F917F916F915F914F913F9165
:100B50002F910F900FBE0F901F9018951F920F921C
:100B60000FB60F9211242F933F934F935F936F9380
:100B70007F938F939F93AF93BF93EF93FF93809156
:100B8000220190912301892B29F0E0912201F0911B
:100B900023010995FF91EF91BF91AF919F918F91A3
:100BA0007F916F915F914F913F912F910F900FBE69
:100BB0000F901F9018951F920F920FB60F9211244D
:100BC0002F933F934F935F936F937F938F939F9355
:100BD000AF93BF93EF93FF938091220190912301F4
:100BE000892B29F0E0912201F09123010995FF91D1
:100BF000EF91BF91AF919F918F917F916F915F9195
:100C00004F913F912F910F900FBE0F901F9018950D
:100C1000AAE7B0E08C9180688C938C918F7D8C9347
:100C2000EBE7F0E08081877080838C91887F86601D
:100C30008C93ECE7F0E080818F7380648083808107
:100C40008F7D80838C91877F8C9310923D01789467
:100C50000895EAE7F0E08081877F808380818F7745
:100C600080830895EAE7F0E09081987F982B908345
:100C70000895ECE7F0E090818295880F880F807CE2
:100C80009F73982B90830895ECE7F0E090818F712B
:100C9000907E892B80830895EAE7F0E0808180616F
:100CA0008083808180648083089580917A0080743D
:100CB000089510923D0190917C008F71907E892B58
:100CC00080937C0080917A00806180937A0080918B
:100CD0007A00806480937A0080917A0086FDFCCF50
:100CE0002091780040917900942F80E030E0282B0B
:100CF000392BC90108950E945906969587959695B6
:100D0000879508951F920F920FB60F9211248F931B
:100D10008FEF80933D018F910F900FBE0F901F902A
:100D2000189510922501109224011092270110921B
:100D300026010895882339F485B78C7F85BF85B750
:100D4000862B85BF0895813041F485B7837F85BFA9
:100D500085B7660F660F862B85BF0895823040F4F5
:100D6000E82FF0E0EE0FFF1FEC5DFE4F7183608314
:100D70000895823040F4E82FF0E0EE0FFF1FEC5DA5
:100D8000FE4F1182108208951F920F920FB60F929C
:100D900011242F933F934F935F936F937F938F9380
:100DA0009F93AF93BF93EF93FF9380912401909112
:100DB0002501892B29F0E0912401F0912501099565
:100DC000FF91EF91BF91AF919F918F917F916F9123
:100DD0005F914F913F912F910F900FBE0F901F90F9
:100DE00018951F920F920FB60F9211242F933F93D5
:100DF0004F935F936F937F938F939F93AF93BF9323
:100E0000EF93FF938091260190912701892B29F080
:100E1000E0912601F09127010995FF91EF91BF9193
:100E2000AF919F918F917F916F915F914F913F9182
:100E30002F910F900FBE0F901F9018951F920F9239
:100E40000FB60F9211242F933F938F939F931D9B67
:100E50003FC0809128019091290180FF02C02C9A07
:100E600001C02C9880912801909129019695879531
:100E7000909329018093280180912A01882329F0E9
:100E800080912A01815080932A0180912B019091B9
:100E90002C01880F991F90932C0180932B01209196
:100EA0002B0130912C0183B190E096958795969512
:100EB00087959695879581709070822B932B909350
:100EC0002C0180932B0180912D018F5F80932D0148
:100ED0009F918F913F912F910F900FBE0F901F9078
:100EE000189510922D0110922A010895E8E6F0E07D
:100EF000808181608083EBE6F0E080818062808386
:100F0000249A0895982F80912A018823E1F788E098
:100F100080932A01892F90E09093290180932801E2
:100F200008959C0180912A018823E1F780E1809354
:100F30002A013093290120932801089580912A01E4
:100F400090E0882309F491E0892F089580912D0184
:100F500090E0883008F091E0892F089580912D016C
:100F60008830E0F380912B0190912C0120912B018E
:100F700030912C01232F332730932C0120932B0108
:100F800020912D01285020932D01089580912D014D
:100F90008031E0F320912B0130912C0110922C0133
:100FA00010922B0180912D01805180932D01C90158
:100FB0000895629FD001739FF001829FE00DF11DA3
:100FC000649FE00DF11D929FF00D839FF00D749FC3
:100FD000F00D659FF00D9927729FB00DE11DF91F6F
:100FE000639FB00DE11DF91FBD01CF0111240895CC
:100FF000A1E21A2EAA1BBB1BFD010DC0AA1FBB1F1D
:10100000EE1FFF1FA217B307E407F50720F0A21B8E
:10101000B30BE40BF50B661F771F881F991F1A94FB
:1010200069F760957095809590959B01AC01BD0125
:10103000CF01089597FB092E05260ED057FD04D049
:10104000D7DF0AD0001C38F4509540953095219593
:101050003F4F4F4F5F4F0895F6F7909580957095ED
:0E10600061957F4F8F4F9F4F0895F894FFCFFB
:00000001FF
