:200000000C9442000C9475050C94A2050C94CF050C9454000C9454000C9454000C94640445
:200020000C9491040C949D030C9437040C94DD030C940A040C9470030C9454000C94540047
:200040000C941D030C9454000C9454000C9454000C9454000C9435050C9454000C9454004E
:200060000C9454000C94540000000100080040000001000400000100080020004000800061
:200080000001000411241FBECFEFD4E0DEBFCDBF11E0A0E0B1E001C01D92AC32B107E1F7CE
:2000A0000E9456000C94C3060C9400000E9440010E943701FDCF70910701E0E0F1E080E0BC
:2000C00090E06FEF21E030E05191751750F0D901082E02C0AA0FBB1F0A94E2F7AD01409534
:2000E000642301968630910579F7809106016817B1F026B1862F90E08370907034E0880F54
:20010000991F3A95E1F72F7C282B28B999B1862F82958F709C7F892B8BB9609306017D5FA3
:20012000709307010895982F862F49B150E0992319F420E830E002C020E230E0242335231D
:200140002115310509F0809590FF04C090E00E941303089590E00E9418030895662341F089
:200160009BB1882311F480E801C080E2892B07C09BB1882311F48FE701C08FED89238BB9DE
:2001800081E008950F931F93062F182F1170682F6270812F0E94AE00882321F0812F602FAC
:2001A0000E9493001F910F910895843020F40E940C059C0102C02FEF3FEFC901089586B159
:2001C0008F7008951F93CF93DF930E943606182FC82FD0E09E01207F30702033310589F150
:2001E000213331053CF42031310559F020323105D1F51BC02034310551F12035310599F567
:200200002BC0CF70D070C630D1051CF02CC00E945B000E942F068823D1F30E943606C0507F
:20022000DF4F888320C00E945B000E942F068823D1F30E943606682F812F83700E94C200E6
:2002400012C083700E94D5000E942A060CC086B18F700E94240607C08FE40E9424060E941A
:2002600036068F7088B9DF91CF911F9108950E942F06882311F00E94E2000E945B00089544
:200280000E94D9040E94E40186E084B980E387B982EA8AB988E00E94A1020E94E20280E0D0
:2002A00090E00E9413030E94EB0280E090E00E94180383E00E94C70481E00E94CE040E94B3
:2002C00018060895089595B5987F982B95BD089582E00E94630116BCEEE6F0E080818160F3
:2002E000808310921F011092200110922101109222010895E1E8F0E09081987F982B9083B9
:20030000089583E00E947A011092850010928400EFE6F0E08081816080830895E1EBF0E0B0
:200320009081987F982B9083089584E00E948E011092B200E0E7F0E080818160808310921B
:200340002701109228011092290110922A010895E5B5F0E0E770F070EE0FFF1FE859FF4FA9
:2003600025913491C9010895E0918100F0E0E770F070EE0FFF1FE859FF4F25913491C90133
:200380000895E091B100F0E0E770F070EE0FFF1FEC58FF4F25913491C9010895873040F49D
:2003A000E82FF0E0EE0FFF1FE85FFE4F718360830895873040F4E82FF0E0EE0FFF1FE85FFF
:2003C000FE4F1182108208951F9310E0812F0E94D9011F5F1730D1F70E9468010E94810184
:2003E0000E94950178941F910895DF92EF92FF920F931F93CF93DF93EC01D6B41092230184
:200400001092240110922501109226010E94A8019C0140E050E060E070E880E790E00E943B
:20042000A80679018A01293B8DE8380786E0480780E0580790F487E2C131D80770F49E01BC
:2004400040E050E0C801B7010E94670628EE33E040E050E00E94860627C0C801B70128EE97
:2004600033E040E050E00E94860679018A019E0140E050E0C801B7010E9467069B01AC011E
:2004800013C08091230190912401A0912501B091260183B7817F83BF83B7816083BF889559
:2004A00083B78E7F83BF04C02D0D311D411D511DE0902301F09024010091250110912601E3
:2004C00086B590E0A0E0B0E0102F0F2DFE2CEE248E299F29A02BB12B82179307A407B507EA
:2004E00080F2DF91CF911F910F91FF90EF90DF90089510921F011092200110922101109265
:200500002201089520911F01309120014091210150912201B901CA010895109227011092E3
:2005200028011092290110922A01089520912701309128014091290150912A01B901CA010D
:200540000895893049F480918000826080938000809180008E7F0EC08A3021F48091800036
:20056000826003C0809180008D7F809380008091800081608093800010928900109288004C
:2005800010928B0010928A000895E0E8F0E020812E7F2083208122602083E1E8F0E02081DC
:2005A000286020832081206120839093870080938600109289001092880010928B001092E4
:2005C0008A000895E0E8F0E080818068808380818F7B80830895E0E8F0E080818062808347
:2005E00080818F7E80830895E0E8F0E080818F77808380818F7B80830895E0E8F0E0808167
:200600008F7D808380818F7E80830895E0E8F0E080818D7F808380818E7F80830E94F402CC
:200620000E94FD0208959093890080938800089590938B0080938A0008951F920F920FB699
:200640000F9211242F933F934F935F936F937F938F939F93AF93BF93EF93FF9380911F011B
:2006600090912001A0912101B09122010196A11DB11D80931F0190932001A0932101B0934F
:2006800022018091230190912401A0912501B09126010196A11DB11D80932301909324015B
:2006A000A0932501B09326018091080190910901009729F0E0910801F09109010995FF914F
:2006C000EF91BF91AF919F918F917F916F915F914F913F912F910F900FBE0F901F901895E3
:2006E0001F920F920FB60F9211242F933F934F935F936F937F938F939F93AF93BF93EF9327
:20070000FF9380910A0190910B01009729F0E0910A01F0910B010995FF91EF91BF91AF9107
:200720009F918F917F916F915F914F913F912F910F900FBE0F901F9018951F920F920FB67B
:200740000F9211242F933F934F935F936F937F938F939F93AF93BF93EF93FF938091270112
:2007600090912801A0912901B0912A010196A11DB11D8093270190932801A0932901B0931E
:200780002A018091120190911301009729F0E0911201F09113010995FF91EF91BF91AF91CE
:2007A0009F918F917F916F915F914F913F912F910F900FBE0F901F9018951F920F920FB6FB
:2007C0000F9211242F933F934F935F936F937F938F939F93AF93BF93EF93FF9380910C01AD
:2007E00090910D01009729F0E0910C01F0910D010995FF91EF91BF91AF919F918F917F916F
:200800006F915F914F913F912F910F900FBE0F901F9018951F920F920FB60F9211242F9362
:200820003F934F935F936F937F938F939F93AF93BF93EF93FF9380910E0190910F0100971A
:2008400029F0E0910E01F0910F010995FF91EF91BF91AF919F918F917F916F915F914F9100
:200860003F912F910F900FBE0F901F9018951F920F920FB60F9211242F933F934F935F932C
:200880006F937F938F939F93AF93BF93EF93FF938091100190911101009729F0E0911001C1
:2008A000F09111010995FF91EF91BF91AF919F918F917F916F915F914F913F912F910F9008
:2008C0000FBE0F901F9018951F920F920FB60F9211242F933F934F935F936F937F938F93C5
:2008E0009F93AF93BF93EF93FF938091140190911501009729F0E0911401F0911501099556
:20090000FF91EF91BF91AF919F918F917F916F915F914F913F912F910F900FBE0F901F90BD
:2009200018951F920F920FB60F9211242F933F934F935F936F937F938F939F93AF93BF93B9
:20094000EF93FF938091140190911501009729F0E0911401F09115010995FF91EF91BF915B
:20096000AF919F918F917F916F915F914F913F912F910F900FBE0F901F901895EAE7F0E06F
:200980008081877F808380818F7780830895EAE7F0E09081987F982B90830895ECE7F0E0C7
:2009A00090818295880F880F807C9F73892B80830895CF93DF93CAE7D0E08881806888834E
:2009C00088818F7D888386E00E94C70481E00E94CE04ECE7F0E080818F7D808388818860AB
:2009E000888310922B017894DF91CF910895ECE7F0E090818F71907E892B80830895EAE7BE
:200A0000F0E0808180618083808180648083089580917A008074089510922B0190917C0015
:200A20008F71907E892B80937C0080917A00806180937A0080917A00806480937A0080915F
:200A40007A0086FDFCCF2091780030917900932F80E030E0282B392BC90108950E940C0568
:200A6000969587959695879508951F920F920FB60F9211248F938FEF80932B018F910F90C0
:200A80000FBE0F901F901895882339F485B78C7F85BF85B7862B85BF0895813041F485B73B
:200AA000837F85BF85B7660F660F682B65BF0895823040F4E82FF0E0EE0FFF1FEA5EFE4FF9
:200AC000718360830895823040F4E82FF0E0EE0FFF1FEA5EFE4F11821082089580E00E9461
:200AE000630581E00E94630508951F920F920FB60F9211242F933F934F935F936F937F931D
:200B00008F939F93AF93BF93EF93FF938091160190911701009729F0E0911601F0911701A7
:200B20000995FF91EF91BF91AF919F918F917F916F915F914F913F912F910F900FBE0F90AC
:200B40001F9018951F920F920FB60F9211242F933F934F935F936F937F938F939F93AF933A
:200B6000BF93EF93FF938091180190911901009729F0E0911801F09119010995FF91EF9127
:200B8000BF91AF919F918F917F916F915F914F913F912F910F900FBE0F901F9018951F92ED
:200BA0000F920FB60F9211242F933F938F939F931D9B32C080911A0190911B0180FF02C0BD
:200BC0002C9A01C02C9880911A0190911B019695879590931B0180931A0180911C0190915E
:200BE0001D01880F991F90931D0180931C0120911C0130911D0181E090E01B9902C080E0C3
:200C000090E0822B932B90931D0180931C0180911E018F5F80931E019F918F913F912F9158
:200C20000F900FBE0F901F90189510921E010895E8E6F0E0808181608083EBE6F0E08081CA
:200C400080628083249A089590E090931B0180931A01089590931B0180931A0108959091AF
:200C60001E0181E0983008F480E0089580911E018830E0F380911C0190911D0120911C013D
:200C800030911D01232F332730931D0120931C0120911E01285020931E01089580911E0131
:200CA0008031E0F320911C0130911D0180911C0190911D019927882790931D0180931C01B6
:200CC00080911E01805180931E01C9010895629FD001739FF001829FE00DF11D649FE00D99
:200CE000F11D929FF00D839FF00D749FF00D659FF00D9927729FB00DE11DF91F639FB00D25
:200D0000E11DF91FBD01CF0111240895A1E21A2EAA1BBB1BFD010DC0AA1FBB1FEE1FFF1F5E
:200D2000A217B307E407F50720F0A21BB30BE40BF50B661F771F881F991F1A9469F7609562
:200D40007095809590959B01AC01BD01CF01089597FB092E05260ED057FD04D0D7DF0AD056
:200D6000001C38F450954095309521953F4F4F4F5F4F0895F6F790958095709561957F4F8F
:0A0D80008F4F9F4F0895F894FFCFA6
:00000001FF
